:100000000C9461000C947E000C947E000C947E0095
:100010000C947E000C947E000C947E000C947E0068
:100020000C947E000C947E000C947E000C947E0058
:100030000C947E000C947E000C947E000C947E0048
:100040000C94C8010C947E000C947E000C947E00ED
:100050000C947E000C947E000C947E000C947E0028
:100060000C947E000C947E00000000090003020046
:10007000000405080000000000000000000000006F
:10008000000000250028002B0000000000240027AD
:10009000002A00040404040404040402020202020C
:1000A00002030303030303020203010204081020F6
:1000B0004080010204081020010204081020408042
:1000C000400011241FBECFEFD8E0DEBFCDBF11E04E
:1000D000A0E0B1E0EEECFBE002C005900D92A4318F
:1000E000B107D9F721E0A4E1B1E001C01D92AD3222
:1000F000B207E1F70E9412020C94E5050C9400008F
:1001000090E0FC01E655FF4F24918D569F4FFC0176
:100110008491882399F090E0880F991FFC01E7579C
:10012000FF4FA591B491FC01E158FF4F8591949147
:100130008FB7F894EC91E22BEC938FBF089590E089
:10014000FC01E859FF4F2491FC01E655FF4F349123
:10015000FC01ED56FF4FE491EE23C9F0222339F064
:10016000243001F1A8F4223069F1233079F1F0E074
:10017000EE0FFF1FE158FF4FA591B4918FB7F89490
:10018000EC91611126C030953E233C938FBF0895BA
:10019000283071F0293091F0253049F780918000A6
:1001A0008F7D03C0809180008F7780938000DFCFA8
:1001B0008091B0008F778093B000D9CF8091B0004C
:1001C0008F7DF9CF84B58F7784BDD1CF84B58F7DF6
:1001D000FBCF3E2BDACF1F93CF93DF93182FEB018A
:1001E0000E948000209739F460E0812FDF91CF9149
:1001F0001F910C949F00CF3FD10511F461E0F5CF22
:10020000E12FF0E0E859FF4FE491E43031F140F4A0
:10021000E230B1F0E330E1F0C038D1057CF7E4CF53
:10022000E83029F1E93059F1E530B1F780918000EB
:10023000806280938000D0938B00C0938A0004C0BA
:1002400084B5806884BDC7BDDF91CF911F910895AB
:1002500084B5806284BDC8BDF7CF8091800080687E
:1002600080938000D0938900C0938800EDCF809167
:10027000B00080688093B000C093B300E5CF809158
:10028000B00080628093B000C093B400DDCF3FB770
:10029000F8948091290190912A01A0912B01B091AD
:1002A0002C0126B5A89B05C02F3F19F00196A11D72
:1002B000B11D3FBFBA2FA92F982F8827BC01CD01B0
:1002C000620F711D811D911D42E0660F771F881F0F
:1002D000991F4A95D1F70895EF92FF920F931F93BC
:1002E000CF93DF937B018C018F3F910519F014F0C0
:1002F0000FEF10E001302FEF120714F401E01FEFB1
:10030000E7012FEFE216F10419F014F0CFEFD0E07F
:10031000C1302FEFD20714F4C1E0DFEF97FD20C00A
:1003200061E082E00E949F0060E083E00E949F0005
:10033000F7FC22C061E088E00E949F0060E089E055
:100340000E949F00B80186E00E94EB00BE0185E09C
:10035000DF91CF911F910F91FF90EF900C94EB00E4
:1003600060E082E00E949F0061E083E00E949F00C5
:10037000119501951109DCCF60E088E00E949F0093
:1003800061E089E00E949F00D195C195D109DACF43
:100390001F920F920FB60F9211242F933F938F93BA
:1003A0009F93AF93BF938091250190912601A091D7
:1003B0002701B09128013091240123E0230F2D372C
:1003C00068F126E8230F0296A11DB11D2093240198
:1003D0008093250190932601A0932701B0932801D3
:1003E0008091290190912A01A0912B01B0912C01BB
:1003F0000196A11DB11D8093290190932A01A0931C
:100400002B01B0932C01BF91AF919F918F913F91A0
:100410002F910F900FBE0F901F9018950196A11D60
:10042000B11DD4CFCF93DF93CDB7DEB72E970FB6E4
:10043000F894DEBF0FBECDBF789484B5836084BDD1
:1004400085B5836085BD80916E00816080936E006C
:1004500082E080938100809181008160809381009F
:10046000809180008160809380008091B1008460E1
:100470008093B1008091B00081608093B00087E8E4
:1004800080937A001092C10088E00E94800089E089
:100490000E94800082E00E94800083E00E94800031
:1004A00085E00E94800086E00E9480000E94470153
:1004B0004B015C0138EBC32E3BE0D32EE12CF12C39
:1004C0000E944701681979098A099B09683E7340AF
:1004D00081059105A8F321E0C21AD108E108F108CD
:1004E00038EE830E33E0931EA11CB11CC114D1045D
:1004F000E104F10429F722242A94322C8AE0E0E076
:10050000F1E0DE01119601900D928A95E1F7EAE0A3
:10051000F1E0AE014F5F5F4F30E020E0C12CD12C05
:10052000760190813296892F983020F09D3008F422
:100530008DE08E508770806480937C0080917A007B
:10054000806480937A0080917A0086FDFCCF809150
:10055000780090917900803293406CF4DA018D91AB
:100560009C91092E000CAA0BBB0BC80ED91EEA1ECB
:10057000FB1E2F5F3F4F4E5F5F4F64E171E06E17D0
:100580007F0779F62115310509F4E9C0032E000C27
:10059000440B550BC701B6010E94A405C90137FFE2
:1005A000D0C0309215012092140130932301209382
:1005B00022018FB7F8944090250150902601609059
:1005C0002701709028018FBF80911E0190911F011B
:1005D000A0912001B0912101B301A201481B590B48
:1005E0006A0B7B0BDB01CA010597A105B10508F475
:1005F0007BC00091220110912301B801012E000C53
:10060000880B990B0E9482044B015C0120911A0116
:1006100030911B0140911C0150911D010E94D90392
:100620006B017C0120E030E84BE355EC0E9445046F
:1006300087FDAEC020E030E84BE355E4C701B601CA
:100640000E94320518160CF4ABC0C0921A01D09269
:100650001B01E0921C01F0921D0180911801909104
:100660001901B801681B790B072E000C880B990B38
:100670000E94820420E030E0A9010E9437056B87C8
:100680007C878D879E872FE832EC45EF5DE3C501BF
:10069000B4010E9437054B015C0120E030E0A90164
:1006A000C701B6010E9437059B01AC01C501B40129
:1006B0000E94D9039B01AC016B857C858D859E854D
:1006C0000E94D9030E944A04709317016093160197
:1006D000109319010093180140921E0150921F01BE
:1006E0006092200170922101009116011091170172
:1006F000B80117FF04C066277727601B710B072E10
:10070000000C880B990B0E94820420E030E040E04E
:100710005FE30E9437059B01AC0160E070E08AE76F
:1007200093E40E94D8030E944A04CB01603571050E
:1007300014F480E590E0BC01601B710B800F911FE9
:1007400018C0892B09F431CFA1E0B0E0B0931501B6
:10075000A09314012031B7E23B0709F026CF809126
:10076000140190911501019671F460E570E080EB41
:100770009FEF0E946C0160E070E0672B09F4BECE31
:100780000E940000BBCE60EB7FEF80E590E0F1CFF0
:10079000C12C90E8D92E9BE3E92E95ECF92E55CF8C
:1007A000C12C80E8D82E8BE3E82E85E4F82E4DCFBF
:1007B0005058BB27AA270E94F0030C94F8040E940B
:1007C000EA0438F00E94F10420F039F49F3F19F454
:1007D00026F40C94E7040EF4E095E7FB0C94E10496
:1007E000E92F0E94090558F3BA17620773078407B7
:1007F000950720F079F4A6F50C942B050EF4E095FE
:100800000B2EBA2FA02D0B01B90190010C01CA01CA
:10081000A0011124FF27591B99F0593F50F4503E75
:1008200068F11A16F040A22F232F342F4427585F67
:10083000F3CF469537952795A795F0405395C9F77F
:100840007EF41F16BA0B620B730B840BBAF0915037
:10085000A1F0FF0FBB1F661F771F881FC2F70EC0D6
:10086000BA0F621F731F841F48F4879577956795A9
:10087000B795F7959E3F08F0B0CF9395880F08F095
:100880009927EE0F9795879508950E94BD0408F467
:1008900081E008950E9451046894B1110C942C05D4
:1008A00008950E94110588F09F5798F0B92F992755
:1008B000B751B0F0E1F0660F771F881F991F1AF04B
:1008C000BA95C9F714C0B13091F00E942B05B1E080
:1008D00008950C942B05672F782F8827B85F39F07F
:1008E000B93FCCF3869577956795B395D9F73EF4E4
:1008F00090958095709561957F4F8F4F9F4F08958C
:10090000E89409C097FB3EF49095809570956195A9
:100910007F4F8F4F9F4F9923A9F0F92F96E9BB275F
:100920009395F695879577956795B795F111F8CFDB
:10093000FAF4BB0F11F460FF1BC06F5F7F4F8F4F46
:100940009F4F16C0882311F096E911C0772321F03C
:100950009EE8872F762F05C0662371F096E8862FD4
:1009600070E060E02AF09A95660F771F881FDAF72B
:10097000880F9695879597F90895990F0008550F58
:10098000AA0BE0E8FEEF16161706E807F907C0F015
:1009900012161306E407F50798F0621B730B840B1D
:1009A000950B39F40A2661F0232B242B252B21F4F7
:1009B00008950A2609F4A140A6958FEF811D811D97
:1009C000089597F99F6780E870E060E008959FEFD1
:1009D00080EC089500240A941616170618060906D6
:1009E000089500240A9412161306140605060895A5
:1009F000092E0394000C11F4882352F0BB0F40F42D
:100A0000BF2B11F460FF04C06F5F7F4F8F4F9F4F6C
:100A1000089557FD9058440F551F59F05F3F71F0EE
:100A20004795880F97FB991F61F09F3F79F0879555
:100A30000895121613061406551FF2CF4695F1DFDE
:100A400008C0161617061806991FF1CF869571056E
:100A5000610508940895E894BB2766277727CB01A2
:100A600097F908950E94BD0408F48FEF08950E943D
:100A70004A050C94F8040E94EA0438F00E94F1043C
:100A800020F0952311F00C94E1040C94E704112458
:100A90000C942C050E94090570F3959FC1F3950FE6
:100AA00050E0551F629FF001729FBB27F00DB11DF2
:100AB000639FAA27F00DB11DAA1F649F6627B00D82
:100AC000A11D661F829F2227B00DA11D621F739F6B
:100AD000B00DA11D621F839FA00D611D221F749F79
:100AE0003327A00D611D231F849F600D211D822FC0
:100AF000762F6A2F11249F5750409AF0F1F08823E7
:100B00004AF0EE0FFF1FBB1F661F771F881F915013
:100B10005040A9F79E3F510580F00C94E1040C94DD
:100B20002C055F3FE4F3983ED4F38695779567955F
:100B3000B795F795E7959F5FC1F7FE2B880F911D3D
:100B40009695879597F90895052E97FB1EF40094C6
:100B50000E94BB0557FD07D00E94C30507FC03D0C8
:100B60004EF40C94BB0550954095309521953F4F20
:100B70004F4F5F4F089590958095709561957F4F89
:100B80008F4F9F4F0895A1E21A2EAA1BBB1BFD0198
:100B90000DC0AA1FBB1FEE1FFF1FA217B307E4075C
:100BA000F50720F0A21BB30BE40BF50B661F771FB4
:100BB000881F991F1A9469F7609570958095909594
:0E0BC0009B01AC01BD01CF010895F894FFCF59
:100BCE0030F818FC0000E803D0070E000F001000EC
:040BDE0011001200F0
:00000001FF
